:020000040800F2
:10000000004C0020850D000863020008650200080E
:1000100067020008690200086B0200080000000087
:10002000000000000000000000000000CD010008FA
:100030006F0200080000000011020008AB14000865
:100040009F0D00089F0D00089F0D00089F0D0008E0
:100050009F0D00089F0D00089F0D00089F0D0008D0
:100060009F0D00089F0D00089F0D00089F0D0008C0
:100070009F0D00089F0D00089F0D00089F0D0008B0
:100080009F0D00089F0D00089F0D00089F0D0008A0
:100090009F0D00089F0D00089F0D00089F0D000890
:1000A0009F0D00089F0D00089F0D00089F0D000880
:1000B0009F0D00089F0D00089F0D00089F0D000870
:1000C0009F0D00089F0D00089F0D00089F0D000860
:1000D0009F0D0008B9100008791200089F0D000854
:1000E0009F0D00089F0D00089F0D00089F0D000840
:1000F0009F0D00089F0D00089F0D00089F0D000830
:100100009F0D00089F0D00089F0D00089F0D00081F
:100110009F0D00089F0D00089F0D00089F0D00080F
:100120009F0D00089F0D00089F0D00089F0D0008FF
:1001300000F002F800F03AF80AA090E8000C8244BF
:100140008344AAF10107DA4501D100F02FF8AFF29C
:10015000090EBAE80F0013F0010F18BFFB1A43F0A5
:10016000010318472429000044290000103A24BF45
:1001700078C878C1FAD8520724BF30C830C144BF0C
:1001800004680C607047000000230024002500264E
:10019000103A28BF78C1FBD8520728BF30C148BFEA
:1001A0000B6070471FB51FBD10B510BD01F0B6FF45
:1001B0001146FFF7F7FF00F06FF801F0D4FF03B42A
:1001C000FFF7F2FF03BC01F0D9FF0000224B1968D2
:1001D0000868B0E8F00F80F30988BFF36F8F4FF025
:1001E000000080F311884EF00D0E704700000000F3
:1001F00006480068006880F3088862B661B6BFF3FD
:100200004F8FBFF36F8F00DF00BF00BF08ED00E02E
:10021000EFF30980BFF36F8F0F4B1A6820E9F00FDF
:10022000106008B54FF0BF0080F31188BFF34F8F07
:10023000BFF36F8F01F0B6FB4FF0000080F3118821
:10024000BDE8084019680868B0E8F00F80F3098835
:10025000BFF36F8F704700BF8C000020EFF3058065
:1002600070477047FEE7FEE7FEE7FEE7704770471E
:1002700070470000FEE7204C07222049204600F08E
:10028000B1FD322001F005FBF6E700BF00F034FFBE
:10029000062001F0FEFAF9E71CB500F0BDFD00F004
:1002A00091FD00F0BBFD154902200C39CDE900019C
:1002B00000234FF4FA7212A1AFF2310001F073F98A
:1002C0000E49032008390023CDE90001C82210A1FE
:1002D000AFF25D0001F067F908490120091F002312
:1002E000CDE9000164220EA1AFF2770001F05BF9C5
:1002F00001F02FFC00201CBD003801400C00002044
:10030000537065656453656E645461736B000000DF
:100310004D616753656E73655175657279000000B4
:100320005370656564526561645461736B000000CD
:10033000A548016841F0010101604168A34A1140EC
:1003400041600168A24A11400160016821F48021E6
:100350000160416821F4FE0141604FF41F0181609A
:10036000704799490A6822F480320A600A6822F4C8
:1003700080220A60B0F5803F07D0B0F5802F03D10E
:10038000086840F4A02008607047086840F4803096
:10039000F9E70246002053098B49012B0AD0022BB2
:1003A0000AD0496A02F01F02012393400B4200D099
:1003B000012070470968F5E7096AF3E718B50020DE
:1003C0004FF4A06400903120FFF7E3FF0099491C2F
:1003D0000091A14201D00028F5D03120FFF7D9FFCC
:1003E000002800D0012018BD77490A6822F0F802E1
:1003F00042EAC00008607047764908607047724A58
:100400005368084323F47C131843506070477149C4
:10041000086670476C4A516821F00301014351603E
:1004200070476948406800F00C007047664A5168A0
:1004300021F0F001014351607047634A516821F493
:10044000E0610143516070475F494A6822F460529D
:1004500042EAC000486070475B4A0029517A01D0E7
:10046000014300E08143517270475A49D831086016
:100470007047554A516821F440410143516070472B
:100480005149002281F8202081F82020012802D043
:10049000042802D1052081F8200070474E490860E9
:1004A000704749490A6A02430A6270474A49443917
:1004B0000860704730B544494A6812F00C03474A57
:1004C00003D0042B01D0082B22D002604A680F23EE
:1004D000434C03EA1212A35C0268DA4042604B68A4
:1004E000072505EA1323E35C22FA03F383604B68D4
:1004F00005EAD323E35C22FA03F2C26049680323CE
:1005000003EA9131231F595CB2FBF1F1016130BD67
:100510004A684B6802F470124FF0020413F4803FF3
:1005200004EB924202D04B689B0301D52D4B00E0B7
:100530002A4B5A43C9E7244A0029516901D0014393
:1005400000E08143516170471F4A0029916901D041
:10055000014300E08143916170471B4A0029D16942
:1005600001D0014300E08143D1617047164A002960
:10057000D16801D0014300E08143D1607047124A45
:100580000029116901D0014300E0814311617047E6
:1005900011494039086070470E49C86470470A49DC
:1005A000C87170470848416A41F0807141627047E4
:1005B000054A0146002092680A4200D00120704797
:1005C0000149887270470000001002400000FFF8E7
:1005D000FFFFF6FE000042428004424200127A0011
:1005E0001700002000093D008F4910B5884206D150
:1005F00001210420FFF7BAFF002104203BE08B49D2
:10060000884206D101210820FFF7B0FF0021082011
:1006100031E08749884206D101211020FFF7A6FF6B
:100620000021102027E08349884206D101212020A3
:10063000FFF79CFF002120201DE07F49884206D162
:1006400001214020FFF792FF0021402013E07B4969
:10065000884206D101218020FFF788FF00218020F9
:1006600009E0774988420AD1841501212046FFF725
:100670007DFF00212046BDE81040FFF777BF10BD89
:1006800010B501210846FFF771FF0021BDE81040B9
:100690000120FFF76BBFF0B5CA78002502F00F0309
:1006A000D20601D58A7813430C784FF00F0E012241
:1006B000E4B104680F8802FA05F63740B74211D159
:1006C0004FEA850C0EFA0CF724EA070703FA0CF43C
:1006D0003C43CF78282F02D0482F02D002E0466159
:1006E00000E006616D1C082DE4D304600C88FF2C2B
:1006F0001ED944685FF0000606F1080702FA07F504
:100700000F882F40AF420FD14FEA860C0EFA0CF73C
:10071000BC4303FA0CF73C43CF78282F00D1456146
:10072000CF78482F00D10561761C082EE4D34460B1
:10073000F0BD4FF6FF710180022181700421C1706C
:1007400070470246002092680A4200D0012070479C
:10075000806880B2704702460020D2680A4200D00A
:1007600001207047C06880B27047016170474161E5
:1007700070470AB10161704741617047C1607047BD
:1007800041F4803282618161826181698069704750
:100790002C4B10B51A684FF68074224042EA0010C4
:1007A0000843186010BD2849C8617047F0B5254C52
:1007B000002801DAE36900E06368420D120185B2A6
:1007C000C0F301579540C0F30346032F05D0C20282
:1007D0000AD50322B240934307E023F070626368B6
:1007E00023F07063636002E0AB4343F0706201B1D9
:1007F0002A43002801DAE261F0BD6260F0BD10B565
:100800008A0721F003040F49130F21440F228C683B
:100810009A4094438C608A68984002438A6010BD75
:100820000949DC310860704700080140000C0140B4
:10083000001001400014014000180140001C01405C
:1008400000200140000001400000204227490843E9
:10085000274908607047F0B50F21C478027801235A
:100860004FF0E026DCB1224C2468457804F4E064C3
:10087000C4F5E064240AC4F10407E1408478BD4073
:100880000C402C4321011B4C1155007800F01F0136
:100890008B40400906EB8000C0F80031F0BD02F04B
:1008A0001F008340500906EB8000C0F88031F0BD86
:1008B000114A114001430E48001F016070470C4A65
:1008C000121D0029116801D0014300E0814311602D
:1008D00070474FF0E0210428086903D020F004009D
:1008E0000861704740F00400FAE700000000FA05D4
:1008F0000CED00E000E400E080FFFF1FC64910B5EA
:1009000088420AD101218C032046FFF72FFE2046A2
:10091000BDE810400021FFF729BEC049884202D13E
:1009200001214C0410E0BE49884202D101218C040F
:100930000AE0BC49884202D10121CC0404E0BA4952
:1009400088420AD101210C052046FFF718FE2046F7
:10095000BDE810400021FFF712BE10BD30B50446BF
:10096000008A85B00D464CF6FF710840E9880143C6
:100970002182A1894EF6F3100140A8882A891043EC
:100980006A890A431043A081A08A4FF6FF410840BC
:10099000A9890143A1826846FFF78CFD9E488442E5
:1009A00001D1039800E00298A1890904002900EB15
:1009B000C00101EB0010296802DA4FEA410101E0B1
:1009C0004FEA8101B0FBF1F06422B0FBF2F14FEA93
:1009D00001114FEA11136FF018056B4300EB830010
:1009E000A3891D044FF0320306D503EBC000B0FB12
:1009F000F2F000F0070005E003EB0010B0FBF2F0AE
:100A000000F00F000843208105B030BD4FF41651AF
:100A1000016000218180C18001810C22428181819D
:100A2000704710B5038A4FF2FF0213400A884C88C2
:100A300022438C88C9880C4322431A43028210BD8A
:100A40000021018041808180C18070470029818917
:100A500002D041F4005101E021F40051818170473E
:100A600010B5C1F3421301F01F040121A140012B75
:100A700007D0022B07D01430002A026805D00A43A1
:100A800004E00C30F8E71030F6E78A43026010BD4E
:100A9000002A828A01D00A4300E08A43828270479A
:100AA000028A22F00F020282028A0A4302827047FF
:100AB000828922F40062828182890A43828170479E
:100AC0000029818902D041F0020101E021F00201F8
:100AD00081817047028A22F020020282028A0A4340
:100AE000028270470029018A02D041F4804101E06E
:100AF00021F4804101827047C1F308018180704771
:100B00008088C0F308007047818941F0010181812C
:100B10007047028BD2B20283028B42EA0121018329
:100B20007047028B02F47F420283028B0A430283E6
:100B300070470029818A02D041F0200101E021F0B4
:100B40002001818270470029818A02D041F0100182
:100B500001E021F01001818270470029818A02D0D2
:100B600041F0080101E021F008018182704700296D
:100B7000818902D041F4004101E0C1F30E0181817D
:100B800070470029818A02D041F4006101E021F41C
:100B9000006181827047828A22F004028282828A06
:100BA0000A43828270470029818A02D041F0020103
:100BB00001E021F002018182704702460020128884
:100BC0000A4200D001207047C9430180704730B508
:100BD00001F01F0201240025C1F3421304FA02F2BE
:100BE000012B0FD0022B0FD0838A4FEA11210088EE
:100BF000134204FA01F400EA040001D000B1012517
:100C0000284630BD8389F0E7038AEEE70A0A01210E
:100C10009140C943018070470038014000440040C2
:100C200000480040004C0040005000400CB500213E
:100C30004C4801910091026842F4803202604FF406
:100C4000A063026802F400320092019A521C0192E1
:100C5000009A12B9019A9A42F3D10268920333D5ED
:100C60000121009140490A6842F010020A600A68B6
:100C700022F003020A600A6842F002020A60416838
:100C8000416041684160416841F480614160416870
:100C900021F47C114160416841F4E8114160016830
:100CA00041F08071016001688901FCD5416821F043
:100CB00003014160416841F0020141604168C1F3B4
:100CC00081010229FAD10CBD00910CBD254810B557
:100CD000016841F0010101604168244A114041600E
:100CE0000168234A11400160016821F480210160FC
:100CF000416821F4FE0141604FF41F018160FFF75C
:100D000095FF1C494FF00060086010BD154910B5F3
:100D10004868194A10F00C03184803D0042B01D07E
:100D2000082B0BD002604968144AC1F30311121D4D
:100D3000515C026822FA01F2026010BD4A684B68F9
:100D400002F470124FF0020413F4803F04EB92425D
:100D500002D04B689B0301D5094B00E0064B5A4378
:100D6000E0E7000000100240002002400000FFF811
:100D7000FFFFF6FE08ED00E000127A0028000020D8
:100D800000093D000948804709480047FEE7FEE7A3
:100D9000FEE7FEE7FEE7FEE7FEE7FEE7FEE7FEE72B
:100DA00004480549054A064B70470000CD0C000871
:100DB0003101000800460020004C002000480020BF
:100DC0000048002008B54FF40060ADF80000102086
:100DD0008DF8030003208DF8020069460D48FFF7E7
:100DE0005AFC08BD2DE9F04115460E460746002481
:100DF0000BE0315D3846FFF77FFE40213846FFF7B4
:100E0000DCFE0028F9D0641CA4B2AC42F1D3BDE8EA
:100E1000F0810000001C014000F0FEB838B54FF42E
:100E2000C060FFF713FD25208DF8000000248DF829
:100E3000024001258DF803506846FFF70CFD26207F
:100E40008DF800008DF802408DF803506846FFF7DA
:100E500002FD38BD2DE9F0470A46054657491046C0
:100E600001F02EFB04460121284601F0CEFC064687
:100E7000214601F023FC524901F022FB514F394633
:100E800001F0F8F9032101F0C0FC01F0B5FA05B258
:100E90002146304601F07AF94B4901F011FB394601
:100EA00001F0E8F9032101F0B0FC01F0A5FADFF848
:100EB0001C9104B24FF4006841464846FFF755FCC8
:100EC000434E444F307828B306F10905200A6C716F
:100ED00028710621284600F05BF8A87106212846F3
:100EE00000F056F8000AE871082229463846FFF754
:100EF00079FF022000F0CDFC082205F110013846F0
:100F0000FFF770FF41464846FFF731FC0020307084
:100F1000BDE8F0872E4C280A641C062165712071FB
:100F2000204600F035F8A0710621204600F030F888
:100F3000000AE071082221463846FFF753FF0220DD
:100F400000F0A7FC082204F110013846FFF74AFF21
:100F500041464846FFF70BFC0120D8E710B5044690
:100F60004171080A20710621204600F011F8A07195
:100F70000721204600F00CF8000AE0710822214603
:100F80001448FFF72FFFBDE81040022000F081BC9D
:100F900070B5114DFF231A4605F5807606E000BFB7
:100FA00010F8014B54402A5D5A40335D0C00A1F10A
:100FB000010189B2F4D142EA032070BDC3F5A83E15
:100FC00000C028C5560E494000C02845001C0140FD
:100FD0003C00002000440040862800081FB504465D
:100FE00000910021ADF80810ADF804100C20ADF808
:100FF0000610ADF80C10ADF80A0069462046FFF760
:10100000ADFC012240F225512046FFF729FD0121C8
:101010002046FFF71BFD1FBD2DE9F8430121852068
:10102000FFF792FA01218803FFF78EFA4FF4E137B8
:1010300039461D48FFF7D2FF18258DF803500326C7
:101040008DF802604FF40070DFF86080ADF80000AA
:1010500069464046FFF71FFB4FF48060ADF8000083
:1010600004248DF8034069461148FFF714FB012161
:101070004804FFF772FA39460E48FFF7AFFF8DF8C4
:101080000350ADF800408DF8026069464046FFF716
:1010900002FB8DF803400820ADF800006946404689
:1010A000FFF7F9FABDE8F883003801400008014075
:1010B000000C01400044004070B5654C40F22555DD
:1010C00029462046FFF783FD002814D02046FFF76D
:1010D00017FD614B01465F481A788154521C1A7003
:1010E0000078522801D00020187029462046BDE81B
:1010F0007040FFF78BBD70BD2DE9F041574F564D45
:10110000544800F01EF856486E680446314601F017
:10111000A3FA04D23946304601F038F808E03146E7
:10112000204601F099F904D23946304601F0C6FA5A
:1011300004460021C5E901412046BDE8F041FFF722
:1011400089BE7CB5444C21780A291FD345A1D1E939
:101150000021CDE9002100216A460D46435C565C22
:10116000B34212D1491CC9B20529F7D3417982791A
:101170000904C07941EA02210843257003D000F038
:1011800007F8E06001E06560E5602570E0687CBD1F
:101190002DE9F0434FF000090546A1B04E464C46FC
:1011A00000F0010001F044F9304F0DF140080F90BC
:1011B000204601F03DF9394601F080FA48F8240054
:1011C000641CE4B2102CF3D308246F4625FA04F013
:1011D00000F0010001F02CF907EB8402641CE4B27A
:1011E00042F8040C102CF1D35FF0010404F110005C
:1011F00025FA00F000F0010001F01AF907EB840174
:10120000641CE4B241F8040C082CEFD35FF0000436
:1012100057F8241011F0FF4F01D0761CF6B258F8A1
:10122000240001F04DF9494600F0B0FF641CE4B21F
:101230008146102CECD3304601F0FAF801464846BE
:1012400001F018F821B00A49BDE8F04301F038B9BF
:1012500000380140C8000020600000206F12033BEE
:101260006666E63E524D6773770000000000F0406E
:10127000000020417047704770B5084D40F225547A
:1012800021462846FFF7A3FC002805D02146284622
:10129000BDE87040FFF7BABC70BD000000440040DC
:1012A0002DE9F0410446002500F0C8FA374A02F162
:1012B0000801506801F1080368B93548002720F09B
:1012C0000700C1E9000744F2F836C3E90076C0E937
:1012D00000360120506044F2F73094B308346607BA
:1012E00004D004F00706C6F108063444661E8642A0
:1012F00027D226480968083001E0084631464E6882
:10130000A64202D20E68002EF7D1994219D0056884
:101310000B68036048680835001B10280DD90B19AD
:1013200058601A484C6008305E6800E02046046847
:101330006768B742FAD31C60036048681168081AEE
:10134000106000F0F4F92846BDE8F08110B50028DF
:1013500017D0A0F1080400F071FA0C486168083059
:1013600000E01046026853688B42FAD322600460A2
:1013700006486168026811440160BDE8104000F051
:10138000D6B910BD01480068704770477000002052
:10139000DF00002000F108014FF0FF32C0E9011228
:1013A000C160016100210160704700210161704747
:1013B00042684A6093688B609368596091600861E5
:1013C0000168491C0160704730B50B685A1C02D097
:1013D00000F1080202E0026904E022465468256830
:1013E0009D42FAD953684B6099608A6051600861E8
:1013F0000168491C016030BDD0E9013201699A6081
:10140000D0E901235A604A68824201D182684A6069
:10141000002202610868401E08607047BF2080F308
:101420001188BFF34F8FBFF36F8FFEE710B5031F17
:101430004FF080741C601B1F21F001011960191FFF
:10144000244B0B60143940380A6010BD4FF0E02087
:1014500021494161072101617047204810B50168A9
:1014600041F47F010160016841F07F410160FFF7B5
:10147000EDFF1B4900200860FEF7BAFE002010BDFA
:101480007047BF2080F31188BFF34F8FBFF36F8F7A
:1014900013480168491C0160704711490868401EE3
:1014A000086001D180F31188704710B5BF2080F328
:1014B0001188BFF34F8FBFF36F8F00F0E4F820B1B6
:1014C00006494FF080501C390860002080F31188D5
:1014D00010BD00001D1400083F19010020ED00E0C0
:1014E000880000202DE9F0410546FFF7CAFFFA4CBD
:1014F000A068401CA0602068F84F10B1606940B33C
:101500002DE02560A068012829D1002606EB860081
:1015100007EB8000FFF73EFF761C052EF6D3EF4861
:101520006430FFF737FFED487830FFF733FFEB48C3
:101530008C30FFF72FFFE948A030FFF72BFFE7487B
:10154000B430FFF727FFE548643060631430A063D0
:1015500005E02068E96AC06A884200D82560606AB0
:10156000401C6062E96A01202269884010432061C2
:1015700001EB810007EB8000291DFFF719FFFFF742
:101580008CFF606900280CD02068E96AC06A884234
:1015900007D2D3494FF080500860BFF34F8FBFF39D
:1015A0006F8FBDE8F0812DE9FF5F8346DDE90E878F
:1015B000994616468A469000FFF772FE05001AD03B
:1015C0004C20FFF76DFE040012D025630021CDE909
:1015D0000241CDE900874B4632465146584600F05D
:1015E0000FFD2046FFF77EFF012004B0BDE8F09F0D
:1015F0002846FFF7ABFE4FF0FF30F6E770B5054623
:10160000FFF73FFFB44C05B92568281DFFF7F4FE2E
:1016100058B9E86AB14A00EB800152F8211021B9AB
:1016200001218140206988432061A86A18B105F131
:101630001800FFF7E1FE606A401C60622068854286
:1016400008D1A648291DA030FFF7B2FE6068401CF3
:10165000606007E0A068401EA060284600F018FD0A
:1016600000F009FDFFF719FF606900280AD0206823
:10167000854207D19A494FF080500860BFF34F8FE1
:10168000BFF36F8F70BD2DE9F041934C0027206BA5
:1016900038B1A069401CA061E06900B1012738465B
:1016A0007FE7E668761CE66008D1606BA16B61633A
:1016B000A063206A401C206200F0DDFCA06ADFF815
:1016C0001C82864209D3606B006880B1606BC06881
:1016D000C568686886420DD2A0622068C06A00EBC7
:1016E000800158F821000128D6D90127D4E74FF00E
:1016F000FF30F1E7281DFFF77FFEA86A18B105F15A
:101700001800FFF779FEE86A012122698140114340
:10171000216100EB800108EB8100291DFFF748FEE5
:10172000E86A2168C96A8842CDD30127CBE72DE951
:10173000F04700242646FFF7A4FE674D286B401EA5
:101740002863286BE8BBA968644F8C370120C1B3BC
:10175000DFF8889180463868E8B1F868C46804F119
:101760001800FFF749FE201DFFF746FEE06A2A69D0
:1017700008FA00F11143296100EB800109EB8100B7
:10178000211DFFF715FEE06A2968C96A8842E2D385
:10179000C5F81C80DFE70CB100F06DFCAC694CB102
:1017A0004FEA0807FFF76FFF00B1EF61641EF9D140
:1017B0000020A861E86920B1494901263007086086
:1017C00000E003E0BFF34F8FBFF36F8FFFF765FEBD
:1017D0003046BDE8F0872DE9F0413F4C0F46054605
:1017E000E6682068001DFFF707FE38B9206890F80A
:1017F0002C1001208840216981432161681C08D197
:101800003FB12168BDE8F0413448091DB430FFF70D
:10181000CFBD20683544B5424560216801F104011F
:1018200004D2A06BBDE8F041FFF7CEBD606BFFF7BF
:10183000CBFDA06A854200D2A562B2E62648016BC4
:10184000491C0163704770B50D460446FFF7F6FF6B
:101850002148C26823685919934204D98B420AD996
:10186000914202D807E08B42FAD9881A2160002100
:10187000FFF7B1FF00E02160FFF759FF002807D113
:1018800017494FF080500860BFF34F8FBFF36F8F41
:1018900070BD10B5020009D0FFF7D0FF002110463F
:1018A000FFF799FFFFF743FF002807D10C494FF0DE
:1018B00080500860BFF34F8FBFF36F8F10BD10B51E
:1018C0000446FFF7DEFD0CB903480468E46AFFF73D
:1018D000E4FD204610BD00008C000020D84400200C
:1018E00004ED00E0BF22EFF3118182F31188BFF312
:1018F0004F8FBFF36F8F08B9FB480068C06A81F350
:10190000118870472DE9F04100270E46044605294D
:1019100000D30426FFF7B5FDF34D04B92C68E06A47
:10192000B0423BD02968864206D98C4207D029684C
:10193000C96AB14202D902E08C4200D10127804637
:10194000E662A069002802DBC6F10500A061E74E4F
:1019500008EB8800616906EB8000814215D1201DEB
:10196000FFF74AFD012120B92A6901FA08F08243F4
:101970002A61E06A2A6981401143296100EB8000F5
:1019800006EB8000211DFFF713FD3FB1D8494FF052
:1019900080500860BFF34F8FBFF36F8FBDE8F041F9
:1019A000FFF77BBDD048016B11B10121C1617047C8
:1019B0000021C1610169CD4AB1FA81F1C1F11F0174
:1019C00001EB810102EB810101F108034A685268D1
:1019D0004A609A4201D152684A60D16801607047FA
:1019E00070B50446FFF74DFDBF4D04B92C68201DAE
:1019F000FFF702FD58B9E06ABC4A00EB800152F8DB
:101A0000211021B901218140286988432861A06AF9
:101A100018B104F11800FFF7EFFCB448211DB430F1
:101A2000FFF7C6FCFFF739FD686928B1FFF729FD0C
:101A300000F021FBFFF731FD2868844209D1686975
:101A400040B1AB494FF080500860BFF34F8FBFF3F8
:101A50006F8F70BDA548A968B4300068884202D174
:101A60000020286070BDBDE870409BE770B50400A1
:101A70002BD09D4D2868844227D0FFF702FD2046D9
:101A800000F010FBE8B1201DFFF7B6FCE06A012171
:101A90002A69814011432961944900EB800001EBE0
:101AA0008000211DFFF784FCE06A2968C96A88422A
:101AB00007D38F494FF080500860BFF34F8FBFF3BB
:101AC0006F8FBDE87040FFF7E8BC70BD2DE9F041B5
:101AD00000270446BF20EFF3118580F31188BFF380
:101AE0004F8FBFF36F8F204600F0DCFAF0B17E4ECF
:101AF000306B20B17D4804F118018C3014E0E06AAD
:101B00003168C96A884200D30127201DFFF774FCA1
:101B1000E16A0120326988401043306101EB8100A5
:101B2000724901EB8000211DFFF742FC85F311880B
:101B3000384636E56D4C4FF080566D4D00F0C1FAD9
:101B400020680128FAD92E60BFF34F8FBFF36F8F43
:101B5000F4E71CB5644800242C30CDE9004023464E
:101B6000802264A16548FFF71EFD012811D1BF2026
:101B700080F31188BFF34F8FBFF36F8F5A484FF038
:101B8000FF31816201214161C460BDE81C40FFF763
:101B900064BC1CBDBF2080F31188BFF34F8FBFF31F
:101BA0006F8F514900204861FFF76ABC4E48C068FA
:101BB00070474D48C06870474B488068704708B907
:101BC000494800683430704710B50C4646490968EA
:101BD0001831FFF7F9FB2046BDE810400121FAE576
:101BE000034610B54048144641F000410268916137
:101BF000016818461831FFF7DBFB2046BDE81040AE
:101C00000121E8E52DE9F041C068C46804F118003D
:101C10000746FFF7F1FB344D286B012660B13348CE
:101C200039468C30FFF7C4FBE06A2968C96A8842EC
:101C300012D90120EE61B4E4201DFFF7DDFBE16A5B
:101C40002A6906FA01F01043286101EB8100274957
:101C500001EB8000211DE5E70020A2E470B541F012
:101C600000410160C468FFF7C7FB201DFFF7C4FBFC
:101C70001D4DE16A01262A6906FA01F01043286128
:101C800001EB8100194901EB8000211DFFF790FB5A
:101C9000E06A2968C96A884202D90120EE6170BDF4
:101CA000002070BD10490A6A0260C968416070472F
:101CB00070B50D460446FFF7E4FB0B4AD16828686F
:101CC000431C0FD02368126A934202D062688A4292
:101CD00016D96268891A814212D2401A28602046B9
:101CE000FFF7E0FF00240CE08C000020D844002027
:101CF00004ED00E049444C4500000000351B00089D
:101D00000124FFF7CAFB204670BDFE490120C861CF
:101D10007047FC4908680A688069D26A0968C2F19C
:101D200005028A61704770B50C460646FFF7A9FBAD
:101D3000F44D2868406C80B92968012081F848007A
:101D40005CB101212046FFF746FDEF494FF080507E
:101D50000860BFF34F8FBFF36F8FFFF79EFBFFF756
:101D600090FB2868446C002034B116B1296848649F
:101D700002E02A68611E5164296881F84800FFF773
:101D80008CFB204670BD2DE9F0411E461546884665
:101D90000746FFF776FBDB4C206890F848000228E6
:101DA00014D02068416CB94341642168012081F856
:101DB00048005EB101213046FFF70DFDD2494FF0DA
:101DC00080500860BFF34F8FBFF36F8FFFF765FB45
:101DD000FFF757FB15B12068406C2860206890F829
:101DE000480001280DD02068416C21EA08014164B7
:101DF00001252168002081F84800FFF74EFB2846A6
:101E00004EE40025F5E72DE9F0411F4690460D46CA
:101E100001260446FFF735FB0FB1606C386094F87B
:101E20004800022184F84810B8F1050F0ED2DFE80F
:101E300008F00D03060C0A00616C294301E0616C97
:101E4000491C616402E0022803D06564012802D0C5
:101E500020E000261EE0201DFFF7CEFAA94DE16A22
:101E600001202A6988401043286101EB8100A749BD
:101E700001EB8000211DFFF79BFAE06A2968C96A1F
:101E8000884207D9A0494FF080500860BFF34F8FB8
:101E9000BFF36F8FFFF701FB3046CEE42DE9F0472B
:101EA00004464FF00108BF20EFF31186DDF82090C3
:101EB00080F31188BFF34F8FBFF36F8F0BB1606C4E
:101EC000186094F84800022384F84830052A0ED29E
:101ED000DFE802F00D03070C0A00626C0A4362643B
:101EE00005E0616C491C01E0022803D0616401280F
:101EF00003D029E04FF0000826E0824D286B01272F
:101F000088B1824804F1180110F18C00FFF750FAF3
:101F1000E06A2968C96A884216D9B9F1000F12D05F
:101F2000C9F8007010E0201DFFF766FAE16A2A691F
:101F300007FA01F01043286101EB8100734901EBBE
:101F40008000211DE2E7EF6186F31188404640E4FE
:101F50002DE9F04104468846BF20EFF3118680F357
:101F60001188BFF34F8FBFF36F8F04F144000179E5
:101F700002220271626C521C6264012926D1614DF9
:101F8000286B012788B1614804F1180110F18C0019
:101F9000FFF70EFAE06A2968C96A884216D9B8F1D3
:101FA000000F12D0C8F8007010E0201DFFF724FACF
:101FB000E16A2A6907FA01F01043286101EB810008
:101FC000524901EB8000211DE2E7EF6186F31188A1
:101FD00033E410B560B10446FFF753FA94F84800B3
:101FE000022808D05FF00004FFF757FA204671E49A
:101FF00044480468F0E7002084F848000124F3E72F
:102000002DE9F0479A46DDE9096481466FF0030344
:10201000206B03EB82021044089D20F0070700208C
:1020200023180A5C83F834200A5C12B1401C102883
:10203000F6D34FF0000884F84380052D00D3042523
:10204000201DE562FFF7B1F904F11800FFF7ADF9C3
:10205000C5F105002461A0616462C4F8448084F87D
:102060004880524649463846FFF7E0F92060002E86
:1020700000D034606BE72348416B096829B1416B9C
:10208000C968C9684968816270474FF0FF31FAE753
:1020900010B50446006BFFF759F92046BDE8104023
:1020A000FFF754B9194B42690021B4339A4206D163
:1020B000806AA3F12802904201D000B901210846AC
:1020C000704770B5114E0F4CA03617E0FFF7B6FB06
:1020D0003068E8B1FFF72BFBFFF7D3F9F068C5686C
:1020E000281DFFF789F9A068401EA0606068401EA7
:1020F0006060FFF7D2F92846FFF7CAFF6068002842
:10210000E4D170BD8C00002004ED00E0D844002034
:10211000FFF70DFBF2E7704770477047754600F018
:1021200029F8AE4605006946534620F0070085466B
:1021300018B020B5FEF734FEBDE820404FF0000691
:102140004FF000074FF000084FF0000B21F007019F
:10215000AC46ACE8C009ACE8C009ACE8C009ACE8E2
:10216000C0098D4670470446AFF300802046FEF755
:1021700026F8000000487047A045002001491820BB
:10218000ABBEFEE7260002007047000090EA010F98
:1021900048BF81F0004100F19882421A3CBF801A8A
:1021A00089184FEAD0524FF07F4C1CEA410FA2EB46
:1021B000D15318BF9CEA026F00F03B804FF0004CF7
:1021C0004CEA00204CEA012121FA03FC10EB0C0C34
:1021D0001ED202F1FF325FEA1C2040EBC25038BF32
:1021E00070471CF07F0F4FEA400C18BFBCF17F4FC7
:1021F00038BF7047C3F12003994008BF20F00100A9
:10220000BCF17F4F38BF7047A0F1C04000F01FBA4B
:102210004FEA3C00000A40EBC25028BF1CF0FF0F01
:102220004FEA400CE6D018BFBCF17F4F38BF704773
:10223000EAE79CEA026F05D010EA5C0F08BF00F0E5
:102240000040704710B500F0BCF900BF64FBBE3E13
:10225000014800F0A8BA00BF0000C07F401058BF7E
:10226000C0F14040491058BFC1F140418142EFF3F5
:10227000008070474FF47F0C1CEAD0121EBF1CEA8E
:10228000D11392EA0C0F93EA0C0F00F0858090EACC
:10229000010F48BF42F4807240F4000C41F400008A
:1022A0002CF07F4120F07F4000B58142A2EB030279
:1022B0000FF2081CACEB504EC0F100009EF800E09D
:1022C0004FEA4E0E00FB0EFC38BF49004FEA2C1CB3
:1022D00002F5FA020CFB0EF34FEACE1E4FEA112C68
:1022E0004FEAC1210EEB635E42EB22420EFB0CFC77
:1022F0004FEA1C5300FB03114FEA112C4FEA013146
:102300000EFB0CFC4FEADC4C00FB0C11C14228BF59
:1023100009184CEB03335DF804EB10EB410143EB80
:10232000C250B2F57C0F38BF704729D512F0F00FBC
:102330001CBF00F1C04000F0004070470081828364
:102340008485868788898B8C8D8E8F9192939596C4
:1023500097999A9C9D9FA0A2A3A5A7A8AAACAEB04E
:10236000B2B3B5B7B9BCBEC0C2C5C7C9CCCED1D453
:10237000D7D9DCDFE2E6E9ECF0F3F7FAFE00000083
:102380004FEA400C0CF1807CBCF17E4F28BF7047B7
:10239000B0F1C04000F05BB990EA010F0CEAD11334
:1023A00048BF42F48072624538BF634507D213F4D8
:1023B0007F0F16D080EA010000F00040704710B592
:1023C00000F0FFF8097EFC3E00F005B880EA01004D
:1023D00000F00040704780EA010000F0004000F08B
:1023E00036B912F47F0F04BF0248704780EA01003B
:1023F00000F02DB90000C07F41000B0ED3F19E020A
:1024000008D950F400034FEA032323FA02F048BF2F
:102410004042704710B500F0D4F800BF49922480C4
:10242000002070476FF0004282EA200070470000F1
:10243000B0FA80F310FA03F2C3F19D030AD0D90574
:1024400001EB1220530638BF704700F1010008BFAE
:1024500020F001007047000050EA010C00F11380E9
:102460001CF5000F58BFBCF5000F01D4884270471F
:1024700007D710F5000F58BF11F5000F15D488428B
:102480007047894270471CF5000F04D5BCF5000F5A
:10249000F7D5814270474FF0807C1CEB400F38BF6E
:1024A0001CEB410F01D28142704710B500F089F852
:1024B000922449004FF000504FF08051FFF7CEBEFC
:1024C0004FF47F0C1CEAD0121EBF1CEAD11392EA13
:1024D0000C0F93EA0C0F00F0478090EA010F48BF01
:1024E00042F480724FF0004C4CEA00204CEA01218B
:1024F00002EB0302A0FB0113A2F50002002918BFA2
:1025000043F001035B0028BF4FEA330342EB224252
:102510005FEA132C4CEBC2502EBFBCEB436FB2F5FD
:102520007C0F70474FEA036CBCF1004F08BF20F0EE
:102530000100B2F57C0F38BF70470BD582F0FF0267
:1025400012F5803FC8BF704700F1C040D8BF00F00F
:102550000040704700F5000C5FEA4C0C48BF704724
:10256000B0F1C04000F073B890EA010F0CEAD1134B
:1025700048BF42F48072624538BF634504D280EAA6
:10258000010000F00040704710B500F01AF800BFDD
:102590008900013E00F007B800F009B85FEA410C7D
:1025A0005FEA1C6C08D080EA010000F050B85FEAD6
:1025B000400C5FEA1C6CF6D14FF00040A0F58000A3
:1025C00070470EF1020E2EF0030E5EF8044B24420B
:1025D00004D44FEA4102B2F17F4F11D84FEA4003D1
:1025E000B3F17F4F0CD80ED14FEAD07CB2F17F4FC0
:1025F0000CEB4C0C0CF1020C08BF4CEBD17C04E052
:102600004FF0080C01E04FEAD17C0CEB4C0324FAAC
:1026100003F404F00704B4F1040C06D20EEB840CAE
:10262000BDE810404CF0010C6047DFE80CF00708F3
:1026300002024FF00040A0F5800010BD08464200A5
:1026400018BFD2F1807288BF00F0004010BDFF219A
:1026500041EAD050C005704751EA000C00F11380E8
:102660001CF5000F58BFBCF5000F01D48142704724
:1026700007D711F5000F58BF10F5000F15D4814290
:102680007047894270471CF5000F04D5BCF5000F58
:10269000F7D5884270474FF0807C1CEB410F38BF64
:1026A0001CEB400F01D28842704780EA010081EAAA
:1026B000000180EA0100FFF7F8BE000090EA010F78
:1026C00048BF81F000413FF568AD421A04D882F05E
:1026D0000042A0EB020011444FEAD0524FF07F4C71
:1026E0001CEA410FA2EBD15318BF9CEA026F4AD0FB
:1026F0004FF0004C4CEA00204CEA012121FA03FC87
:10270000B0EB0C0C0FD412F0FE0F36D05FEA4C0089
:102710001DD5001240EBC25038BF70471CF03F0F70
:1027200018BF70470BE0A2F101025FEA1C2040EBEA
:10273000C25038BF70471CF07F0F18BF7047C3F1FD
:102740002003994014BF401E20F00100704780080C
:102750004FEA122308BF7047B0FA80FCA2EB0C02CC
:10276000CCF1280C60FA0CF093EA122F04BF00EBB6
:10277000C25070474FEAC3707047130A5FEADC101B
:1027800008BF7047F6E79CEA026F04D010EA5C0FBE
:1027900008BF0020704710B5FFF713FF40DFF63E7B
:1027A00081F0004070470CF00F03092B08BF082090
:1027B00000F051800A2B0BD0082B18BF704708BFC0
:1027C0001CF0400F0AD04FF000004FF0000170479E
:1027D0001CF0400F18BF4FF0004070471CF0100F66
:1027E00008D020F0704300F07F4242EAD3014FEA64
:1027F0004370704700F0604021F07F4242EA0002DF
:1028000001F07F4040EA727070474FF0FF0212EA19
:10281000D0521CBF92F0FF038B42C2BFD14200EBEB
:10282000C1507047002A0AD0002B0BD0002900F0BD
:102830000040A4BF40F0FE4040F40000704700F0AC
:102840000040704743024FF00B0C18BF4CF0806CF7
:102850007FF4FEAC70471CF4801F11D01CF4E02FF5
:1028600003D06FEACC31490070474FF04050EFF38E
:10287000008222F0704242EA000282F30088704730
:102880004FF00000704700C1814001C0804101C08D
:10289000804100C1814001C0804100C1814000C130
:1028A000814001C0804101C0804100C1814000C120
:1028B000814001C0804100C1814001C0804101C010
:1028C000804100C1814001C0804100C1814000C100
:1028D000814001C0804100C1814001C0804101C0F0
:1028E000804100C1814000C1814001C0804101C0E0
:1028F000804100C1814001C0804100C1814000C1D0
:10290000814001C0804101C0804100C1814000C1BF
:10291000814001C0804100C1814001C0804101C0AF
:10292000804100C1814000C1814001C0804101C09F
:10293000804100C1814001C0804100C1814000C18F
:10294000814001C0804100C1814001C0804101C07F
:10295000804100C1814001C0804100C1814000C16F
:10296000814001C0804101C0804100C1814000C15F
:10297000814001C0804100C1814001C0804101C04F
:10298000804100C1814000C0C101C30302C2C6062C
:1029900007C705C5C404CC0C0DCD0FCFCE0E0ACA97
:1029A000CB0BC90908C8D81819D91BDBDA1A1EDEE7
:1029B000DF1FDD1D1CDC14D4D515D71716D6D21297
:1029C00013D311D1D010F03031F133F3F23236F6A7
:1029D000F737F53534F43CFCFD3DFF3F3EFEFA3A57
:1029E0003BFB39F9F83828E8E929EB2B2AEAEE2EE7
:1029F0002FEF2DEDEC2CE42425E527E7E62622E257
:102A0000E323E12120E0A06061A163A3A26266A6A6
:102A1000A767A56564A46CACAD6DAF6F6EAEAA6A16
:102A20006BAB69A9A86878B8B979BB7B7ABABE7E66
:102A30007FBF7DBDBC7CB47475B577B7B67672B216
:102A4000B373B17170B050909151935352929656A6
:102A50005797559594549C5C5D9D5F9F9E5E5A9AD6
:102A60009B5B99595898884849894B8B8A4A4E8E66
:102A70008F4F8D4D4C8C44848545874746868242D6
:102A80004383418180400000A82A00080000002004
:102A9000C80000006C010008702B0008C80000206E
:102AA000384B000088010008000000000000000012
:102AB00000000000524D6773775E6902040608004B
:102AC00000000001020304010203040607080900D4
:102AD00000A24A04000000000000000001020304FC
:102AE0000607080900030600430000000002060074
:102AF000430000000003030022000125E20203005E
:102B00002200014FF400000000000000000000005F
:102B10000000000000000000F8430000000000007A
:102B200000000000000000000000000000000000A5
:102B3000AAAAAAAA000000000000000000000000ED
:102B40000000000000000000000000000000000085
:102B50000000000000000000000000000000000075
:102B60000000000000000000000000000000000065
:0400000508000131BD
:00000001FF
